:020000040800F2
:10000000D004002009010008F70F0008510600087D
:10001000F50F00081903000805160008000000008D
:10002000000000000000000000000000D1140008E3
:10003000A104000800000000B9100008991500088C
:10004000230100082301000823010008DD13000834
:100050002301000823010008B5040008230100085B
:100060002301000823010008230100087903000888
:1000700023010008230100082301000823010008D0
:1000800023010008230100082301000823010008C0
:1000900023010008230100082301000823010008B0
:1000A00023010008230100082301000823010008A0
:1000B0002301000823010008230100082301000890
:1000C0002301000823010008230100082301000880
:1000D0002301000823010008230100082301000870
:1000E0002301000823010008230100082301000860
:1000F00023010008DFF80CD000F02EF8004800477C
:10010000C91A0008D0040020064880470648004766
:10011000FEE7FEE7FEE7FEE7FEE7FEE7FEE7FEE7B7
:10012000FEE7FEE79D150008F500000830B50B4618
:10013000014600202022012409E021FA02F59D4217
:1001400005D303FA02F5491B04FA02F52844151EEB
:10015000A2F10102F1DC30BD064C074D06E0E0687B
:1001600040F0010394E8070098471034AC42F6D3FE
:10017000FFF7C4FF901D0008B01D0008002981682A
:1001800002D041F0010101E021F0010181607047DE
:1001900004490A68006822F4403240EA020008601C
:1001A00070470000042701400029816802D041F413
:1001B000807101E021F48071816070470246002067
:1001C00012680A4200D001207047000030B5426832
:1001D0000F4B0C791A400B6842EA04221343436028
:1001E00082680C4B4D791A40D1E9034323438C6854
:1001F00044EA4504234313438360026B097D22F0E4
:10020000F872491EC9B242EA0151016330BD0000D3
:10021000FFFEFFFCFDF7FFC070B5072413290AD9C4
:10022000C568A1F1140606EB4606B440A543B340E9
:100230001D43C56014E009290AD90569A1F10A0620
:1002400006EB4606B440A543B3401D43056107E0F5
:10025000456901EB4106B440A543B3401D434561E8
:100260001F23072A09D2046C521E02EB820293401C
:100270009C4391400C43046470BD0D2A09D2C46BA9
:10028000D21F02EB820293409C4391400C43C46313
:1002900070BD132A09D2846B0D3A02EB820293409F
:1002A0009C4391400C43846370BD192A09D2446B6E
:1002B000133A02EB820293409C4391400C43446307
:1002C00070BD046B193A02EB820293409C4391404B
:1002D0000C43046370BD816841F0804181607047C8
:1002E00000210160017141714FF04072C0E90212BA
:1002F000016101210175704706490028D1F8040702
:1003000002D040F4000001E020F40000C1F804072E
:100310007047000000200140FEE770B504464FF42E
:1003200000460D46304600F033F9042805D125601B
:100330003046BDE8704000F02BB970BD0548D0F8DC
:10034000041CC90705D00449C0F80C1C0349C0F8B7
:100350000C1C704700300240EFCDAB89050403024E
:10036000044A0029516801D0014300E081435160F3
:1003700070470000002004E010B5022000F004F8EF
:10038000BDE8104001F09CBCC10001D401494860A7
:1003900070470000006002400029016802D041F06F
:1003A000010102E04FF6FE7211400160704700004B
:1003B00001684FF6FE72114001600021016041604A
:1003C0008160C1601C491C4A0839904203D14868C9
:1003D00040F00F0006E0184A1432904204D14868F9
:1003E00040F0F00048607047134A2832904203D131
:1003F000486840F47060F5E70F4A3C32904203D100
:10040000486840F47040EDE70B4A5032904203D107
:10041000486840F47020E5E7074A6432904203D10F
:10042000486840F47000DDE7034A78329042DAD140
:10043000486840F07060D5E708600240002A026812
:1004400001D00A4300E08A430260704730B5036878
:1004500047F6F07293430C6A8A682243D1E9044557
:100460002C4322438C692243CC6922434C6A2243A9
:100470008C6A22431A430260CA6842600A6882603A
:100480004968C16030BD0021016041608160C16088
:10049000016141618161C1610162416281627047B4
:1004A000704700000249886188690028FCD17047C4
:1004B0001C00002010B501F009FCBDE8104001202F
:1004C000AFF3008001490860704700001404014048
:1004D00030B51F4A8179036899B311460C6824EA44
:1004E00003040C604B68046823EA04034B6004793E
:1004F00004EB02031C68056844EA05041C608B6871
:10050000046823EA04038B60CB68046823EA0403CD
:10051000CB604379A1F58061102B05D099180A684A
:10052000006802430A6030BD01F581610A68036812
:1005300042EA03020A604A68006842EA00024A602E
:1005400030BDFFE700791044016899430160F7E787
:10055000000401400149086070470000183C024057
:100560000A490420D1F8182CD20701D00120704785
:10057000D1F8182CD20501D502207047D1F8181CEB
:100580004FF6F0621142F8D003207047003002406D
:1005900000B50346FFF7E4FF03E000BFFFF7E0FF0D
:1005A0005B1E012803D0002B00D1052000BD002BCD
:1005B000F4D1FAE7F0B50022012303250E6803FA0F
:1005C00002F42640A6422FD10768540005FA04F62B
:1005D000B74307600F79D0F800C0A74047EA0C077F
:1005E00007600F79012F01D0022F11D18768B7431F
:1005F00087604E798768A6403E438660868803FA06
:1006000002F7BE43868087888E799640374387807D
:10061000C668570005FA07FC26EA0C06C660CE79C4
:10062000A640C4682643C660521C102AC6D3F0BD3B
:100630004B07DB0E9A40C90810B500EB8100016A38
:100640000F249C40A1430162016A1143016210BD65
:10065000FEE7000070B586B001F0EAF80121032042
:1006600000F02CFD00258DF804508DF80750032074
:100670001F4E01248DF80500009469463046FFF7AF
:1006800099FF0021084600F025FF8DF80C50082046
:100690008DF80D0002948DF80E4002A8FFF718FFA8
:1006A00006208DF810000F208DF811008DF8120033
:1006B0008DF8134004A800F09FFC8DF80440C02082
:1006C0008DF8065000908DF807508DF8054069466A
:1006D0000848FFF76FFF8020A6F81A044020A6F80C
:1006E0001A0400213F2000F0E9FC06B070BD0000B4
:1006F0000000024000040240054A136823F47833E6
:100700001360136840EA010043EA00031360704776
:100710000424004001490860704700000080044242
:1007200004490A6822F4E0520A600A6842EA0002B8
:100730000A6070470424004070B500780024352812
:100740006CD018DC302869D00CDC2A284CD004DCB2
:10075000202835D0252822D15AE02D2850D02F2806
:100760001DD150E0312859D0322857D0332855D0E8
:10077000342814D152E06D283CD008DC36284DD006
:1007800037284BD0382849D0392808D146E06E2880
:1007900033D0B02839D0B52829D0FF283BD0A0F1DC
:1007A0004106224D1A2E03D205EB400434F8824C48
:1007B000A0F161061A2E03D205EB400030F8C24CBE
:1007C00009B144F002040AB144F020040C210020D5
:1007D00024FA01F202F00F021A54091F401CC0B2A1
:1007E000C9B20428F4D370BD4AF2DD04E8E746F24A
:1007F0008404E5E74BF21024E2E742F21024DFE73D
:100800004FF42044DCE7C024DAE74FF46C44D7E728
:100810004FF43344D4E74FF6DD74D1E7034C34345E
:1008200004EB400030F8604CCAE70000481D0008A7
:1008300004490A6822F460720A600A6842EA000207
:100840000A6070470424004010B5042000F06CFBDF
:100850000028FAD10649002201EB8003C3F81424D2
:10086000401CC0B20F28F7D9BDE8104000F098BB7B
:10087000002000407CB501213F2000F01FFC48F221
:100880000E70574D022400908DF8044069462846AA
:10089000FFF790FE0B2201212846FFF7C9FE0B222D
:1008A00002212846FFF7C4FE0B2203212846FFF74A
:1008B000BFFE0B2208212846FFF7BAFE0B220921B2
:1008C0002846FFF7B5FE0B220A212846FFF7B0FEA7
:1008D0000B220F212846FFF7ABFE4FF63870414D33
:1008E00000908DF8044069462846FFF763FE0B220E
:1008F00003212846FFF79CFE0B2204212846FFF720
:1009000097FE0B2205212846FFF792FE0B220821B5
:100910002846FFF78DFE0B2209212846FFF788FEA7
:100920000B220A212846FFF783FE0B221146284698
:10093000FFF77EFE0B220C212846FFF779FE0B22E3
:100940000D212846FFF774FE0B220E212846FFF7E3
:100950006FFE0B220F212846FFF76AFE8DF8044038
:1009600040F6CF70204C009069462046FFF722FEEB
:100970000B2200212046FFF75BFE0B2201212046BF
:10098000FFF756FE0B2202212046FFF751FE0B22F5
:1009900003212046FFF74CFE0B2206212046FFF7DD
:1009A00047FE0B2207212046FFF742FE0B220821BB
:1009B0002046FFF73DFE0B2209212046FFF738FEB7
:1009C0000B220A212046FFF733FE0B221146204658
:1009D000FFF72EFE00213F2000F070FB7CBD0000E1
:1009E00000000240000402400008024070B50546C5
:1009F000012408E0002223461146284600F0A2F810
:100A00006D1C641CE4B22878002801D0082CF1D3B6
:100A100070BD00B585B000204FF47011CDE9000124
:100A20000C2102914021CDE90310684600F086FABE
:100A3000012000F0A3FA4FF48050FFF771FE002070
:100A4000FFF7F6FE402000F09FFA00F0AFFA012019
:100A5000FFF760FE012000F067FA0028FAD01020AE
:100A600000F062FA0028FAD04FF480410020FFF72E
:100A700043FEFFF7E9FE05B000BD00002DE9FC478D
:100A800088460021914600910191002855D00146E9
:100A9000002502E06D1CEDB2491C0A78002AF9D14C
:100AA0000446FFF7A3FF4846FFF7FCFC002742E09F
:100AB00000203CE0461CB6FBF5F105FB1161615CD2
:100AC0008DF80010811CB1FBF5F205FB1211615C81
:100AD0008DF80110C11CB1FBF5F205FB1211615C30
:100AE0008DF80210011DB1FBF5F205FB1211615CDE
:100AF0008DF80310411DB1FBF5F205FB1211801DAD
:100B0000615C8DF80410B0FBF5F105FB1100205C71
:100B10008DF80500FFF798FE6846FFF767FF084865
:100B20000078002809D14846FFF7BCFCF0B2A84283
:100B3000C0D37F1CFFB24745BAD3BDE8FC87000095
:100B40001900002038B51C466B46FFF7F5FD042060
:100B500000F0EAF90028FAD1EF48072C7ED2DFE84E
:100B600004F07D04449FEAFEFD0000F21440026898
:100B7000EA4902EA01020260826802EA0102826036
:100B8000026902EA01020261826902EA01028261EB
:100B90009DF8001001F0030201F00C0142EA8161AE
:100BA000026841EA020101609DF8011001F00302B0
:100BB00001F00C0142EA8161826841EA0201816030
:100BC0009DF8021001F0030201F00C0142EA81617C
:100BD000026941EA020101619DF8031001F003027C
:100BE00001F00C0142EA8161A0E000F214400268C9
:100BF000CB4902EA01020260826802EA01028260D5
:100C0000026902EA01020261826902EA010282616A
:100C100002689DF8001001F00C0342EA036201F043
:100C200002034FEA831301F0010143EA810142EA22
:100C30000102026082689DF8011001F00C0342EA93
:100C4000036201F002034FEA831301F0010143EA5A
:100C5000810142EA01028260026900E057E19DF8E9
:100C6000021001F00C0342EA036201F002034FEAB2
:100C7000831301F0010143EA810142EA01020261AA
:100C800082699DF8031001F00C0342EA036201F04F
:100C900002034FEA831301F0010143EA810133E1CA
:100CA00000F21440016821F003210160816821F005
:100CB00003218160016921F003210161816921F033
:100CC000032181619DF8001001F00C024FEA82526D
:100CD00001F0030142EA0121026841EA02010160D8
:100CE0009DF8011001F00C024FEA825201F003015D
:100CF00042EA0121826841EA020181609DF8021006
:100D000001F00C024FEA825201F0030142EA012194
:100D1000026941EA020101619DF8031001F00C0231
:100D20004FEA825201F0030142EA0121826941EA5D
:100D300002018161EBE000F214400268794902EAA5
:100D400001020260826802EA01028260026902EA2C
:100D500001020261826902EA010201E07DE035E000
:100D600082619DF8001001F00C024FEA824201F00E
:100D7000030142EA8121026841EA020101609DF813
:100D8000011001F00C024FEA824201F0030142EA35
:100D90008121826841EA020181609DF8021001F020
:100DA0000C024FEA824201F0030142EA812102690A
:100DB00041EA020101619DF8031001F00C024FEAC3
:100DC000824201F0030142EA8121AFE700F21440C0
:100DD000016821F443210160816821F4432181608D
:100DE000016921F441210161816921F4412181617D
:100DF0009DF8001001F00C024FEA024201F00301DD
:100E000042EA0131026841EA020101609DF80110E5
:100E100001F00C024FEA024201F0030142EA013103
:100E2000826841EA020181609DF8021001F00C0223
:100E30004FEA024201F0010142EA0131026941EA4E
:100E4000020101619DF8031001F00C024FEA024219
:100E500001F0010142EA013168E700F21440016843
:100E600021F470310160816821F470318160016981
:100E700021F470310161816921F47031816102686E
:100E80009DF8001001F0040342EAC33201F00803A8
:100E90004FEA433301F0030143EA813142EA0102A0
:100EA000026082689DF8011001F0040342EAC33237
:100EB00001F008034FEA433301F0030143EA8131B3
:100EC00042EA0102826002699DF8021001F0040307
:100ED00042EAC33201F008034FEA433301F0010153
:100EE00043EA813142EA0102026182699DF80310FE
:100EF00001F0040342EAC33201F008034FEA43332E
:100F000001F0010143EA813142EA0102826100F00D
:100F100057F800F045F838BD00200040FCFFFFCF37
:100F200003FFFFF3FFF3CFFF034A014600201268DF
:100F30000A4200D001207047082400400E4A00B544
:100F40000346506820F07F705060D3E9000140EA0A
:100F50000100516840EA0100506000F027F8106875
:100F600020F07E001060106899680843D3E90313ED
:100F700019430843106000BD002400400149C861C6
:100F8000704700000080044204490A6822F07002A1
:100F90000A600A6842EA00020A60704704240040BE
:100FA000014901200860704708810442034800BFDE
:100FB000D0F808148906FBD57047000000200040D7
:100FC0000A48016821F420410160816821F4204130
:100FD0008160026806490B7842EA03320260826847
:100FE000497842EA013181607047000024240040C2
:100FF0001A000020FEE7704770B50F22C57803780D
:101000004FF0E0210124E5B1D1F80C5D0B4405F46B
:10101000E065C5F5E0652E0AC6F10405F2404678A4
:10102000AE408578154035432A0183F800240078C6
:1010300000F01F029440400901EB8000C0F800411D
:1010400070BD03F01F008440580901EB8000C0F818
:10105000804170BD084B1A6822F0030202431A60F7
:101060000648026822F004020260012901D020BF74
:10107000704730BF704700000070004010ED00E086
:10108000034A0146002052680A4200D001207047FE
:1010900000700040014908627047000000000E42E5
:1010A000044A116821F4C051014321F00C00106082
:1010B000704700000070004070470000054A00299A
:1010C000D2F81C1801D0014300E08143C2F81C187B
:1010D0007047000000300240054A0029D2F8241869
:1010E00001D0014300E08143C2F82418704700009A
:1010F00000300240054A0029D2F8201801D00143EF
:1011000000E08143C2F82018704700000030024020
:1011100010B5012000F0BCF8212000F09BF8002859
:10112000FAD0012000F0F6F84FF4404000F0BEF88D
:1011300001213F20FFF7C2FF01211548FFF7CCFF37
:10114000012140F20120FFF7D5FF0120FFF7A2FFA8
:10115000012000F0D9F8002000F0D6F8012000F0BE
:101160009DF8492000F076F80028FAD0012000F020
:10117000A7F84FF4803000F0A9F8002000F080F8C4
:10118000312000F067F8002800D0FEE710BD000015
:10119000000200902B4910B5D1F8082812F00C037A
:1011A0004FF4004205D0042B0AD0082B0AD00C2B98
:1011B0000AD0D1F80438C3F342335B1C9A401BE0D9
:1011C000214A19E0214A17E0D1F80828D1F8083857
:1011D00002F470121E4C03F4400304EB92421278A6
:1011E000012404EB9353D1F8084814F4803F26D02F
:1011F000164C6243B2FBF3F201F6080102600A6882
:10120000134B02F0F0024FEA121203F109039C5C47
:10121000026822FA04F242600C6804F4E0644FEAC7
:1012200014241C5D22FA04F48460096801F46051FE
:101230004FEAD121595C22FA01F2C26010BD024C82
:10124000D7E70000003002400024F40000127A00CA
:1012500000000020014600204A09084B012A09D05D
:10126000D3F8342801F01F0101238B40134200D032
:1012700001207047D3F80028F4E700000030024056
:10128000024900220A7008707047000002380240CC
:1012900001490860704700000000474202490022EF
:1012A0000A7008707047000035380240034A116820
:1012B00021F4604141EA00011160704704380240A6
:1012C0000149086070470000D8064742C0F3014258
:1012D0000C49032A08D1D1F8002822F0C04300F0BD
:1012E000C0421A43C1F8002801F634010A6822F40A
:1012F00040320A600A6800F4403042EA00020A60A4
:10130000704700000030024001490860704700004B
:10131000DC064742034A116821F0030141EA00015B
:101320001160704708380240C0F30F1040F0800091
:10133000C1430448026802F0800241EA02010160F0
:10134000704700000C2800400A4A10B5936B00213A
:1013500003F00404136804EAD03403EA000352687B
:10136000234302EA101003D00004000C00D0012136
:10137000084610BD08280040104ACA23C2F8243885
:101380005323C2F82438002920F00403D2F80818A7
:1013900000F0040006D01943C2F80818D2F840182B
:1013A000014305E09943C2F80818D2F84018814378
:1013B000C2F84018FF20C2F82408704700200040FF
:1013C0000549CA220A614FF053020A6108604FF0D2
:1013D000FF000861704700001428004010B54FF46A
:1013E00080442046FFF7B0FF002807D02046FFF7D3
:1013F0009BFFA001BDE81040FFF764B810BD0000DE
:1014000011490020CA228A614FF053028A610A689A
:1014100022F0A0020A60A1F60C014FF4805300BF35
:10142000D1F80C28401C02F02002984201D0002A7A
:10143000F6D0D1F80C08800601D5012000E000208C
:10144000FF22C1F8242870470C2800400849CA220E
:10145000CA614FF05302CA610A6822F007020A60AB
:101460000A6842EA00020A604FF0FF00C861704754
:101470000828004015490022CA23C1F82438532304
:10148000C1F824380028D1F8080804D040F480605E
:10149000C1F8080815E020F48060C1F808084FF48E
:1014A000005300BFD1F80C08521C00F004009A420F
:1014B00001D00028F6D0D1F80C08400701D4002054
:1014C00000E00120FF22C1F82428704700200040DE
:1014D0007047000010B58A0721F003040649130F76
:1014E00021440F228C689A4094438C608A6898400B
:1014F00002438A6010BD0000000001402448D0F87B
:10150000001841F00101C0F8001800BFD0F8001821
:1015100011F0020FFAD0D0F80018890736D5D0F8AC
:10152000001C21F00101C0F8001CD0F8001C21F0C3
:101530000201C0F8001CD0F8001C21F00401C0F822
:10154000001CD0F8241841F08051C0F8241811492B
:101550004FF400620A604A68D206FCD400F6080024
:10156000016801600168016001680160016821F0A3
:1015700003010160016841F001010160A0F608006B
:10158000D0F80818C1F381010129F9D17047000092
:10159000003002400070004000F02AB8114810B539
:1015A000016841F48071016081680F4A01EA02011B
:1015B000816001680D4A01EA02010160016821F4BD
:1015C00080210160816821F47D0181604FF000017C
:1015D000C160FFF793FF4FF0E0214FF00060C1F8CA
:1015E000080D10BD003802400CC0FF88FEFFFEEE63
:1015F00003488169002902D08169491E81617047D1
:101600001C000020FEE700000FB4084B10B504A931
:1016100002AA039800F01CF8044602A9002000F07A
:10162000C3F8204610BC5DF814FB0000A9170008A1
:1016300002E008C8121F08C1002AFAD1704770479B
:10164000002001E001C1121F002AFBD170470000F9
:101650002DE9FF4F89B004469B46002599E02528D7
:1016600033D10027641C4F4AB84601212378203B20
:1016700001FA03F0104202D00743641CF6E7207819
:101680002E2819D114F8010F47F004072A280ED08C
:101690006FF02F022078A0F1300109290CD808EB57
:1016A000880102EB410108448046641CF2E70A9875
:1016B000641C02C80A908846207800286DD06428EF
:1016C00008D0692806D075281FD05A460B99904734
:1016D0006D1C5DE00A990A20814601C90A91002823
:1016E00004DAC0F100004FF02D0102E0390504D505
:1016F0002B218DF82010012104E0F90701D02021D1
:10170000F7E700218A4608AE0CE00A990A208146D4
:1017100001C90A91F5E74946FEF708FD01F13001DC
:1017200006F8011D0028F6D1ADEB060000F12000FF
:101730008146780701D401208046002041464A4670
:10174000C84500DD881A8046002706E008A85A46EA
:10175000C05D0B9990476D1C7F1C5745F6DB04E07C
:1017600030205A460B9990476D1CB8F10001A8F142
:1017700001008046F4DC05E016F8010B5A460B998F
:1017800090476D1CB9F10001A9F101008146F3DC1D
:10179000641C207800287FF462AF0DB02846BDE8B5
:1017A000F08F0000092801000A68531C0B601070BC
:1017B0007047000070B501214802FFF79BFC012132
:1017C0000806FFF77BFC164C01212046FEF7D6FCED
:1017D00040212046FEF7F2FC0028F9D0114D2846A2
:1017E000FEF7E6FD10492846FEF730FE01212846A7
:1017F000FEF7D2FD012202212846FEF71FFE00213E
:101800002046FEF7D1FC01212046FEF7CDFC07491A
:10181000002088702046BDE87040FEF75CBD0000E7
:101820000024014008600240580000201C000020F5
:101830001CB501213F20FFF741FC4FF6FF700090DF
:1018400003208DF8050000218DF807108DF80400A5
:1018500069460F48FEF7AEFE69460E48FEF7AAFE3F
:1018600069460D48FEF7A6FE69460C48FEF7A2FE43
:1018700069460B48FEF79EFE49F6FF7000906946E8
:101880000848FEF797FE00213F20FFF717FC1CBD1C
:101890000004024000080240000C02400010024018
:1018A000001402400000024070B501214802FFF719
:1018B00021FC0120FEF720FD23494FF48060888041
:1018C0008888421E8A800028FAD11F494FF40030D0
:1018D000083108600846FEF75BFC1C48FEF700FD77
:1018E0001A4800210122016002714171C160016149
:1018F00014210175164D01462846FEF767FC0124A8
:101900000723E2B210212846FEF786FC641C102C47
:10191000F6D91122072311462846FEF77DFC07233E
:10192000122211212846FEF777FC072313221121EA
:101930002846FEF771FC2846BDE8704007231422B4
:101940001121FEF769BC00001C00002040000020AF
:101950000024014038B501210806FFF7AFFB194DFF
:101960002846FEF725FD1848FEF78DFD1649174855
:101970000024086001F12C00C1E901041420C1E930
:10198000030480204861400088618000C1E90704A9
:10199000C000C1E909042846FEF758FD01220221D2
:1019A0002846FEF74BFD0B208DF800008DF8014016
:1019B0008DF8024001208DF803006846FFF71CFBFC
:1019C00038BD000008600240580000205824014043
:1019D000FEB54FF480152C462846FEF773FD0094A3
:1019E00000248DF8044008208DF8050001268DF8AC
:1019F00006606846FEF76CFD03208DF808008DF840
:101A000009408DF80A408DF80B6002A8FFF7F4FA40
:101A10001748016841F00401016001210807FFF740
:101A20005BFB0120FFF736FB0120FFF737FC492065
:101A3000FFF710FC0028FAD04FF48030FFF746FC87
:101A40000120FFF73DFCFFF7DBFC0420FFF7FEFC65
:101A50000120FFF7B5FC4FF480442046FFF764FCFB
:101A60002846FEF72FFD01212046FFF785FCFEBD2D
:101A70000070004030B5012311E000BF30F8134082
:101A80001A4602E020F81250521E2AB100EB42051D
:101A900035F8025CA542F5D820F812405B1C8B4259
:101AA000ECD330BD30B501EB4102002394088A0825
:101AB00004E000BF30F81250521C2B44A242F9D36C
:101AC0004808B3FBF0F030BDFFF722FB4FF4006095
:101AD000FFF7E6FA1020FFF7D3FA0028FAD1012128
:101AE0000720FEF73DFC3D48FFF754FB3B484FF411
:101AF000FA61002540684FF0E024B0FBF1F0B0F14E
:101B0000807F0AD220F07F40401E60613449F0207F
:101B10000870A5614FF007002061FEF79BFDFEF7FE
:101B2000A9FEFEF776FF4FF4967201212DA0FEF775
:101B3000A5FF206920F00300206100F0D9F8374E9E
:101B4000374C01280DD000F0C7F801280DD004F162
:101B50001C004FF42A71418040F26231C18000F0D4
:101B6000D3F83068E061706803E02E480168E161F5
:101B700040682062FFF72CFFFFF7ECFEFFF794FEB2
:101B80005FF00106FFF716FE30BF00F055F800F0D9
:101B90006DF8E07830B1E570207808B125701AE072
:101BA000267001E02078B0B122691FA10B481438DB
:101BB000FFF72AFDFEF748FE08481438FEF716FF27
:101BC0000120FFF757FC01210020FFF743FA002016
:101BD000FFF750FCD6E716A16269E7E7C0000020D6
:101BE00023ED00E02020202A2A2053544D33324C8C
:101BF0002D444953434F56455259202D2054454DAD
:101C000050455241545552452053454E534F522052
:101C10004558414D504C45202A2A00000000080834
:101C20001C0000207800F81F3E2025640000000002
:101C3000256420B04300000010B501210948FEF7DB
:101C4000ABFB00210848FEF799FA00214FF4007021
:101C5000FFF750FABDE8104000214FF08070FFF709
:101C60002DBA0000086002400024014030B5002475
:101C700010211148FFF7FEFE10210F48FFF712FF59
:101C80000E4A0D4B1021106133F81150491C2C44A1
:101C90001429F9D3A108D16008491C314B88C9889F
:101CA000C01A00EB001000EB8000C91A90FBF1F0A5
:101CB0001930506130BD0000840000201C0000205D
:101CC00001490120887070471C0000200149012053
:101CD000C87070471C000020044900208A880988C9
:101CE000A2EB0101322900DD012070477A00F81FC4
:101CF00004490020CA884988511A322900DD012090
:101D0000704700000000080870B50446FEF716FB97
:101D100040F60270FEF71EFC618809480904FEF7D0
:101D2000FCFA084D68706878042800D0FEE7044883
:101D3000E188001D0904FEF7F0FA687070BD00002C
:101D4000000008081C00002000FE1467001D144756
:101D5000009D009C003F00FA1400005341980019B8
:101D6000485A095A005F00FC015F01FC00AF1404EF
:101D7000005BC018815AC9005800C005005F0042CE
:101D800000F5006700EA00AF00BF004600FF00EF6B
:101D9000B01D0008000000204000000030160008C0
:101DA000F01D0008400000209004000040160008CC
:101DB000030406080C101820300000000001020384
:101DC00004010203040607080900000000040000E3
:101DD0000000000000000000000000000000000003
:101DE00000000000000000000000000000000000F3
:04000005080000F5FA
:00000001FF
