:020000040800F2
:10000000180600209D0100084D120008E90B0008A9
:1000100049120008250700082F1D000800000000F5
:10002000000000000000000000000000A51800080B
:100030002D08000800000000DD120008D519000896
:10004000B7010008B7010008B7010008B7010008B0
:10005000B7010008B7010008B7010008B7010008A0
:10006000B7010008B7010008B7010008B701000890
:10007000B7010008B701000829070008B701000808
:10008000B7010008B7010008B7010008B701000870
:10009000B7010008B7010008B7010008B701000860
:1000A000B7010008B7010008B7010008B701000850
:1000B000B7010008B7010008B7010008B701000840
:1000C000B7010008B7010008B7010008B701000830
:1000D000B7010008B7010008411B0008B70100087C
:1000E000B1090008B7010008B7010008B70100080E
:1000F000B7010008B7010008B7010008B701000800
:10010000B7010008B7010008B7010008B7010008EF
:10011000B7010008B7010008411A0008B70100083C
:10012000B7010008B7010008B70100086D07000813
:10013000B7010008B7010008B7010008B7010008BF
:10014000B7010008B7010008B7010008B7010008AF
:10015000B7010008B7010008B7010008B70100089F
:10016000B7010008B7010008B7010008B70100088F
:10017000B7010008B7010008B7010008B70100087F
:10018000B7010008B7010008DFF80CD000F0A8FAAA
:1001900000480047712600081806002006488047DE
:1001A00006480047FEE7FEE7FEE7FEE7FEE7FEE75C
:1001B000FEE7FEE7FEE7FEE7D9190008890100081F
:1001C00030B505462A460B4612F8010B13F8014BD1
:1001D00008B1A042F8D01CB1002802D06D1CF1E794
:1001E000284630BD2DE9FE4F804681EA0300C00F4E
:1001F0000C46009021F0004123F00045B8EB0200CE
:10020000A94105D24046214690461C460B4602466F
:1002100023F00040104347D0270DC7F30A00C3F373
:100220000A510290401A019040286BDAC3F3130080
:1002300040F4801B0098924620B10023D2EB030AC1
:1002400063EB0B0B01985946C0F14002504600F099
:1002500026F906460D4650465946019A00F02EF9F9
:1002600010EB08006141002487EA115284EAE77329
:100270001A4340D0009A62B3019A012A4FEA07520A
:1002800015DC001B61EB02014FF0004202EA07524D
:10029000CDE90042001C41F5801132462B4600F0AA
:1002A0002EF903B0BDE8F08F40462146F9E7001B68
:1002B00061EB0201001C41F5801300185B4120181E
:1002C000A2F5001747EB030140EAD570B6196D415E
:1002D00011E06D084FEA360645EAC0754FEA07524D
:1002E000001B61EB0201001C41F5801149084FEA37
:1002F00030000019514132462B4603B0BDE8F04FA3
:1003000000F0EEB80098012240000023D0EB02027A
:1003100063EBE073009821464FEAE074B8EB00000D
:1003200061EB0401E9E783F000435BE781F0004102
:1003300058E72DE9F04D81EA030404F0004B21F069
:10034000004514464FF0000A23F0004150EA050230
:1003500020D054EA01021DD0C5F30A570246C5F366
:100360001303C1F31300C1F30A5640F4801543F49C
:100370008013A7EB0608101BD64608F2FD3873EB76
:10038000050002D308F1010801E092185B41B8F1C1
:10039000000F03DA00200146BDE8F08D00204FF485
:1003A0008011064684460EE0171B73EB050705D344
:1003B000121B63EB050306434CEA010C49084FEAA4
:1003C000300092185B4150EA0107EDD152EA030078
:1003D00012D082EA040083EA0501084305D0101B0D
:1003E000AB4106D20122002306E000224FF0004379
:1003F00002E06FF0010253101AEB06004CEB0851BB
:1004000010EB0A0041EB0B01BDE8F04D00F068B8BD
:1004100030B50B46014600202022012409E021FAD4
:1004200002F59D4205D303FA02F5491B04FA02F5D1
:100430002844151EA2F10102F1DC30BD2DE9F05F68
:100440000546002092469B46884606468146402443
:100450001BE0284641464746224600F053F95346E2
:100460005A46C01A914110D311461846224600F050
:1004700016F82D1A67EB01084F462246012000218D
:1004800000F00DF817EB00094E41201EA4F1010405
:10049000DFDC484631462A464346BDE8F09F202A25
:1004A00004DB203A00FA02F1002070479140C2F1CB
:1004B000200320FA03F3194390407047202A06DBFB
:1004C000CB17203A41FA02F043EAE07306E041FA22
:1004D00002F3D040C2F12002914008431946704710
:1004E00010B5141E73F1000408DA401C41F100013C
:1004F00092185B411A4301D120F0010010BD2DE993
:10050000F04D92469B4611B1B1FA81F202E0B0FA89
:1005100080F220329046FFF7C2FF04460F4640EAC1
:100520000A0041EA0B0153465A46084313D01146CC
:1005300053EA010019D0C8F14002504600F0E2F839
:1005400005460E46504659464246FFF7A8FF084367
:1005500005D0012004E020463946BDE8F08D00209A
:10056000054346EAE0762C4337430A986305E40ADC
:10057000A0EB08000022FD0A44EA47540A3002D5E5
:1005800000200146E9E7010510196941DDE9084548
:1005900000196941BDE8F04DA2E72DE9FE4F81EA5F
:1005A000030404F0004421F0004100944FF0000BDC
:1005B00023F0004350EA01045ED052EA03045BD00A
:1005C000C3F30A54C1F30A552C44A4F2F334019442
:1005D000A0FB0254C1F3130141F48011C3F31303D0
:1005E00043F4801301FB024400FB034E840A970A84
:1005F00044EA815447EA8357A4FB076802958D0AB1
:1006000005FB07854FEA932C04FB0C542705029D3C
:100610004FEA065847EA1637B5EB08056EEB070CAC
:10062000870E920E47EA811742EA8312A7FB020166
:10063000B6EB0B0164EB00042B0D43EA0C335E18A0
:1006400044EB1C50DA465146E7FB0201C5F31304A4
:100650004FEA0B3343EA14534FEA0432019C43EA56
:100660000603A4F10C040294009CCDE900B4FFF74A
:1006700046FF03B0BDE8F08F00200146F9E7C1F363
:100680000A52C1F3130140F2FF3341F480119A4240
:1006900002DA00200146704740F233439A42A2F248
:1006A000334202DC524200F02DB8FFF7F8BE0000E2
:1006B00030B5041E71F1000404DB4FF000444042E9
:1006C00064EB0101141E73F1000405DB1C464FF0BE
:1006D0000043524263EB0403994208BF904230BD8D
:1006E000064C074D06E0E06840F0010394E807007F
:1006F00098471034AC42F6D3FFF74AFD9C28000817
:10070000BC280008202A04DB203A21FA02F000214C
:10071000704721FA02F3D040C2F120029140084311
:100720001946704700BFFEE710B50B490B4800F0B3
:100730004BF880B10849094800F02CF808480088B7
:1007400020F48060064908808914064800F04AFABF
:1007500001200549087010BD008000185860024053
:1007600000380040000402401400002010B5064983
:10077000064800F029F830B10349044800F00AF8AF
:1007800001200349087010BD008000185864024021
:10079000150000200246094B9A4201D2084801E0A8
:1007A0000648103801F000531BB1064B0B40C360E4
:1007B00002E0044B0B40836070470000106402406D
:1007C000006002407D0F7D0F70B5024600200024BE
:1007D0000025124EB24201D2114B01E00F4B103BEB
:1007E000104E0E4036B11E2606EAD124166806EADF
:1007F000040502E0566906F0800501F000560EB1CE
:100800005C6800E01C68084E344004EA010616B13A
:100810000DB1012000E0002070BD00001064024016
:10082000006002403C0F3C0F7D0F7D0F70470000C1
:1008300000B587B00121084600F052FD01214804AF
:1008400000F05EFD00208DF81A0001208DF81B00DD
:1008500003208DF8190002208DF81800042005905F
:1008600005A92F4800F048F902208DF8180008204B
:10087000059005A92A4800F03FF9072202212848DF
:1008800000F082F907220321254800F07DF94FF49A
:10089000E13001900020ADF80800ADF80A00ADF895
:1008A0000C00ADF810000C20ADF80E0001A91D4899
:1008B00001F0CAF901211B4801F05EF926208DF8EC
:1008C000000004208DF8010000208DF802000120B6
:1008D0008DF80300684600F0BBFC012240F2255170
:1008E000104801F08CF901208DF818008DF81A00DD
:1008F00000208DF81B0003208DF8190001200590C1
:1009000005A9074800F0F8F80220059005A9044859
:1009100000F0F2F80321024800F064F907B000BDCE
:10092000000002400044004070B504460D460BE054
:1009300021780F4801F0F7F900BF80210C4801F041
:1009400027F90028F9D0641C20780028F0D1094844
:10095000006828440849086000BF06480068064946
:1009600009688842F9D100200449086070BD000080
:1009700000440040100000201C000020180000204F
:1009800010B541F2883106A0FFF7CEFF06A1074857
:10099000FFF716FC08B1012010BD0020FCE70000A5
:1009A00041540D0A000000004F4B000024000020BD
:1009B00010B54FF4004000F017F8012806D104A04C
:1009C00001F0B8F94FF4004000F008F810BD000045
:1009D000BDF8C8EBD6D0B6CF0D0A000001490860BB
:1009E00070470000143C014001460020034A126891
:1009F0000A400AB1012000E000207047143C014089
:100A0000002123498279002A3AD00A4612680368F5
:100A10009A430B461A600A1D126803689A430B1D1D
:100A20001A60027911440A6803681A430A60184A76
:100A30000832126803689A43154B08331A601A1D6E
:100A4000126803689A43124B0C331A604279102AD9
:100A50000ED11A1F126803681A430D4B08331A602F
:100A60001A1D126803681A43094B0C331A600DE013
:100A70000749427911440A6803681A430A6005E08D
:100A8000027911440A6803689A430A6070470000BB
:100A9000003C014010B500F017FE00BF00F006F862
:100AA0004EF616718842F9D110BD000010B5002431
:100AB0004FF480510F4800F093F8902000F0AAFE08
:100AC000FF2000F0A7FEFF2000F0A4FE002000F0B1
:100AD000A1FEFF2000F09EFE44EA0024FF2000F06B
:100AE00099FE04434FF48051024800F07BF8204601
:100AF00010BD000000040240F0B50A4600210023AA
:100B0000002400BF3DE0012505FA01F3156805EA60
:100B100003049C4234D105684F000326BE40B54310
:100B2000056015794E00B5400668354305601579B6
:100B3000012D02D01579022D16D185684F000326AC
:100B4000BE40B543856055794E00B5408668354353
:100B50008560456801268E40B543456045689679B5
:100B60008E40B6B235434560C5684F000326BE408F
:100B7000B543C560D5794E00B540C6683543C560FC
:100B8000491C1029BFD3F0BDF0B5002300244D0748
:100B9000ED0E02FA05F3CE1000F1200555F82650AF
:100BA0004E07F70E0F26BE40B543CF1000F12006CA
:100BB00046F82750CE1000F1200555F8265045EA9A
:100BC0000304CE1000F1200545F82640F0BD024692
:100BD000002013690B400BB1012000E0002070479A
:100BE000418370470183704700BFFEE710B54FF4A3
:100BF00000611048FFF7F4FF022001F010FD4FF4F0
:100C000080510C48FFF7ECFF012001F008FD4FF484
:100C100000610848FFF7E6FF012001F000FD4FF4F6
:100C200000610448FFF7DCFF4FF480510148FFF7F3
:100C3000D9FF10BD0000024010B54FF400610E480E
:100C4000FFF7CEFF022001F0EAFC4FF480510A4882
:100C5000FFF7C8FF012001F0E2FC4FF400610648F5
:100C6000FFF7C0FF012001F0DAFC4FF400610248F9
:100C7000FFF7B6FF10BD0000000002401CB50121C7
:100C8000084600F02DFB01208DF804008DF80600C9
:100C9000C002009003208DF8050000208DF80700A9
:100CA00069460A48FFF728FF4FF4805000906946D4
:100CB0000648FFF721FF4FF480510448FFF792FFE9
:100CC0004FF400610148FFF78DFF1CBD000002409A
:100CD00070B5002400251BE04FF400611148FFF7B8
:100CE0007FFF022001F09BFC4FF400610D48FFF7ED
:100CF00079FF012001F093FC6006040E4FF480514F
:100D00000848FFF764FF08B144F00104681CC5B24D
:100D1000082DE1DB4FF400610248FFF761FF204638
:100D200070BD0000000002402DE9F04107460C466E
:100D3000154600F027F8D02000F084F800F05CF8A9
:100D4000384600F07FF800F057F800F01BF8D1208B
:100D500000F078F800F050F8002606E0FFF7B8FF42
:100D6000A855FFF743FF701C86B2601EB042F5DC49
:100D7000FFF7AEFF611E6854FFF75EFF00F020F83A
:100D8000BDE8F08110B54FF480510C48FFF72AFF01
:100D90004FF400610948FFF725FF012001F03FFCF7
:100DA0004FF480510548FFF71BFF012001F037FC8D
:100DB0004FF400610148FFF713FF10BD000002402F
:100DC00010B5022001F02BFC4FF480510948FFF7C9
:100DD00007FF4FF400610748FFF704FF012001F00F
:100DE0001EFC4FF480510348FFF7FCFE022001F087
:100DF00016FC10BD0000024010B500244FF48051D5
:100E00000F48FFF7EFFE4FF400610D48FFF7EAFED1
:100E100008E0601CC4B2C82C04DD00F09DF9FFF7A7
:100E2000CFFF10BD4FF480510548FFF7D0FE0028DA
:100E3000EFD14FF400610248FFF7D2FE00BFF0E7A8
:100E40000000024070B50446002521E04FF4006127
:100E50001548FFF7C5FE022001F0E1FB04F0800019
:100E600028B14FF480511048FFF7BCFE04E04FF466
:100E700080510D48FFF7B4FE6006040E4FF4006188
:100E80000948FFF7AFFE012001F0C9FB681CC5B29D
:100E9000082DDBDB4FF400610348FFF7A1FE0220C1
:100EA00001F0BDFB70BD00000000024070B50546BA
:100EB0000C46FFF767FFD020FFF7C4FFFFF79CFF4A
:100EC0002846FFF7BFFFFFF797FF2046FFF7BAFF5F
:100ED000FFF792FFFFF774FF70BD2DE9F041074661
:100EE0000C4615461E462A2000F0D0FB384600F07E
:100EF00085FB204600F082FB2B2000F0C7FB284634
:100F000000F07CFB304600F079FB2C2000F0BEFBAB
:100F1000BDE8F08170B50646EF2300221946104661
:100F2000FFF7DBFF00240AE0002504E0304600F074
:100F300065FB681C85B2F02DF8DB601C84B2F02CD8
:100F4000F2DB70BD10B500F0DBFA01F04FFC1021B0
:100F50006548FFF745FEC82001F055FB10216248A7
:100F6000FFF740FEC82001F04EFB362000F08EFB5C
:100F7000002000F06DFB3A2000F088FB052000F017
:100F800067FBB22000F082FB0C2000F061FB0C201C
:100F900000F05EFB002000F05BFB332000F058FB0C
:100FA000332000F055FBB72000F070FB352000F037
:100FB0004FFBBB2000F06AFB372000F049FBC0204C
:100FC00000F064FB2C2000F043FBC22000F05EFB2D
:100FD000012000F03DFBC32000F058FB122000F080
:100FE00037FBC42000F052FB202000F031FBC6206C
:100FF00000F04CFB002000F02BFBD02000F046FB63
:10100000A42000F025FBA12000F022FBE02000F04E
:101010003DFBD02000F01CFB042000F019FB0D204C
:1010200000F016FB112000F013FB132000F010FB62
:101030002B2000F00DFB3F2000F00AFB542000F0B5
:1010400007FB4C2000F004FB182000F001FB0D20F2
:1010500000F0FEFA0B2000F0FBFA1F2000F0F8FA77
:10106000232000F0F5FAE12000F010FBD02000F082
:10107000EFFA042000F0ECFA0C2000F0E9FA11205D
:1010800000F0E6FA132000F0E3FA2C2000F0E0FA7A
:101090003F2000F0DDFA442000F0DAFA512000F0A1
:1010A000D7FA2F2000F0D4FA1F2000F0D1FA1F2029
:1010B00000F0CEFA202000F0CBFA232000F0C8FA8E
:1010C000352000F0E3FA002000F0C2FA212000F001
:1010D000DDFA112000F0DAFA292000F0D7FA012118
:1010E0000248FFF77DFD10BD0000024000040240F1
:1010F00010B51F20FFF70EFF4FF47A7001F083FA4E
:101100004FF47840FFF706FF4FF47A7001F07BFA56
:1011100010BD00001CB50121022000F0E1F8022002
:10112000009001208DF8040000208DF806000220B8
:101130008DF8050069460348FFF7DEFC00F004F86F
:101140001CBD00000004024010B502210148FFF759
:1011500049FD10BD0004024010B502210148FFF70F
:101160003FFD10BD0004024008B56A46012175200C
:10117000FFF7DAFD9DF8000008BD10B5FFF77EFD12
:1011800000F016F800216B20FFF790FE07211920D0
:10119000FFF78CFE06211A20FFF788FE18211B207E
:1011A000FFF784FE00211C20FFF780FE10BD000029
:1011B00000B585B00121084600F092F801218803AE
:1011C00000F0AEF800208DF8100002208DF813001A
:1011D0008003039003A91348FFF78EFC28208DF8A5
:1011E000080003208DF8090000208DF80A00012076
:1011F0008DF80B0002A800F02BF80F21002000F062
:1012000053FB4FF40040009000208DF804000820AC
:101210008DF8050001208DF806006846FFF7F0FB09
:1012200005B000BD0000024010B5002406E02046D5
:10123000611CCCB2C82801DD002010BDFFF794FF6F
:101240006828F4D10120F8E700BFFEE770470000EE
:1012500070B5002100230F22C4781CB3174C2468FA
:1012600004F4E064C4F5E064C4F30721C1F10404AC
:10127000E3B20A4144789C40E1B2847814402143AF
:101280000C07210E0E4C05786155047804F01F05FB
:101290000124AC4005786D11AD0005F1E025C5F8DD
:1012A000004109E0047804F01F050124AC40054D1D
:1012B0000678761145F8264070BD00000CED00E080
:1012C00000E400E080E100E002490143024A1160CD
:1012D000704700000000FA050CED00E070470000C8
:1012E00029B1064A12680243044B1A6004E0034A1B
:1012F00012688243014B1A60704700003038024088
:1013000029B1064A12680243044B1A6004E0034AFA
:1013100012688243014B1A60704700004038024057
:1013200029B1064A12680243044B1A6004E0034ADA
:1013300012688243014B1A60704700004438024033
:10134000F0B5002100220024022500260223324F9E
:101350003F6807F00C0121B1042905D0082937D1D5
:1013600005E02E4F076036E02D4F076033E02A4F2F
:101370003F1F3F68C7F38056274F3F1F3F6807F066
:101380003F036EB1264FB7FBF3F7DFF88CC0ACF12B
:10139000040CDCF800C0CCF3881C07FB0CF40CE058
:1013A0001E4FB7FBF3F7DFF870C0ACF1040CDCF8AC
:1013B00000C0CCF3881C07FB0CF4174F3F1F3F689D
:1013C000C7F301477F1C7D00B4FBF5F7076002E01F
:1013D000124F076000BF00BF0F4F3F6807F0F001DA
:1013E0000909104F7A5C0768D74047600A4F3F6889
:1013F00007F4E051890A0B4F7A5C4768D740876051
:10140000054F3F6807F46041490B064F7A5C476817
:10141000D740C760F0BD0000083802400024F40047
:1014200040787D01000000201CB501210420FFF759
:1014300057FF01208DF8040000208DF806008DF87C
:10144000070003208DF805004FF4E0700090694616
:101450000248FFF751FB00F003F81CBD00080240F2
:1014600010B540210648FFF7BDFB80210448FFF777
:10147000B9FB4FF480710248FFF7B4FB10BD0000C8
:101480000008024010B5044604F0010020B14FF4FA
:1014900080710948FFF7A4FB04F0020018B1802115
:1014A0000548FFF79DFB04F0040018B140210248F5
:1014B000FFF796FB10BD00000008024010B5FFF7D3
:1014C000CFFF0120FFF7DEFF4FF47A7001F09BF8A9
:1014D000FFF7C6FF0220FFF7D5FF4FF47A7001F047
:1014E00092F8FFF7BDFF0420FFF7CCFF4FF47A70AE
:1014F00001F089F801A000F01DFC10BD313233006D
:1015000000B587B001210720FFF7EAFE012108039B
:10151000FFF706FF052211463448FFF735FB052289
:1015200007213248FFF730FB02208DF81800002019
:101530008DF81A008DF81B0003208DF8190020206B
:10154000059005A92948FFF7D7FA8020059005A93D
:101550002648FFF7D1FA01208DF8180030200590B9
:1015600005A92348FFF7C8FA5020059005A91F4890
:10157000FFF7C2FA0120059005A91E48FFF7BCFA43
:1015800010211B48FFF72EFB20211948FFF72AFBEB
:1015900040211648FFF726FB10211448FFF722FBD5
:1015A0004FF44040ADF800004FF48270ADF80200F7
:1015B0000020ADF80400ADF80600ADF808004FF4C7
:1015C0000070ADF80A000020ADF80C00ADF80E0078
:1015D0000720ADF810000121074800F0E3F8694644
:1015E000054800F0F9F807B000BD00000000024017
:1015F00000080240000402400030014010B50446DB
:1016000010211148FFF7ECFA40210F48FFF7EAFAE2
:1016100021120E4800F0DEF800BF02210B4800F056
:10162000CDF80028F9D0E1B2084800F0D3F800BFA7
:101630000221064800F0C2F80028F9D01021024823
:10164000FFF7D0FA10BD000000000240003001405A
:1016500010B5044610210B48FFF7C2FA4021094893
:10166000FFF7C0FA2146084800F0B4F800BF022195
:10167000054800F0A3F80028F9D010210148FFF731
:10168000B1FA10BD000002400030014010B5044620
:1016900010210B48FFF7A4FA40210948FFF7A0FAF0
:1016A0002146084800F096F800BF0221054800F0E6
:1016B00085F80028F9D010210148FFF793FA10BDF2
:1016C000000002400030014000B587B00121022037
:1016D000FFF706FE01218803FFF712FE05220D2108
:1016E0002E48FFF751FA05220E212C48FFF74CFA3D
:1016F00005220F212948FFF747FA02208DF818002C
:1017000000208DF81A008DF81B0003208DF81900B9
:101710004FF40050059005A92048FFF7EDF94FF46C
:101720000040059005A91D48FFF7E6F94FF48040F9
:10173000059005A91948FFF7DFF901208DF8180079
:1017400000208DF81A004FF48050059005A9134829
:10175000FFF7D2F90020ADF800004FF48270ADF829
:1017600002000020ADF80400ADF80600ADF8080056
:101770004FF40070ADF80A000020ADF80C00ADF891
:101780000E000720ADF810006946054800F024F867
:101790000121034800F006F807B000BD0004024034
:1017A0000038004021B1028842F04002028004E08B
:1017B00002884FF6BF731A4002807047024600202D
:1017C00013890B400BB1012000E000207047014657
:1017D000888970478181704710B50022028802F421
:1017E00041520B884C8823438C882343CC88234365
:1017F0000C8923434C8923438C892343CC8923437D
:101800001A430280838B4FF2FF74234083830B8A39
:10181000038210BD70B50546002408E0601C84B248
:1018200042F21070844202DD11A000F083FA02211E
:101830001548FFF7C3FF0028F0D0002429461248BE
:10184000FFF7C8FF08E0601C84B242F210708442C7
:1018500002DD0EA000F06EFA01210B48FFF7AEFF8B
:101860000028F0D000240848FFF7B1FFC0B270BDD7
:10187000D0B4D2BBB8F6D7D6BDDAB3F6CFD6D2EC59
:10188000B3A3300D0A00000000380040D0B4D2BB32
:10189000B8F6D7D6BDDAB3F6CFD6D2ECB3A3310DB6
:1018A0000A0000007047000030B500228B071C0FB3
:1018B0000F2303FA04F20B4B8C1053F8243093439C
:1018C000084C8D1044F8253023468C1053F82430F2
:1018D0008C07240F00FA04F42343024C8D1044F8C3
:1018E000253030BD083801400CB500200190009033
:1018F0003448006840F480303249086000BF314805
:10190000006800F4003000900198401C019000989D
:1019100018B90198B0F5A04FF1D12A48006800F439
:10192000003010B10120009001E0002000900098EC
:10193000012846D123484030006840F080502149BA
:10194000403108602048006840F440401E4908606B
:101950001C48083000681B490831086008460068C8
:1019600040F4004008600846006840F4A050086059
:101970001648091F0860081F006840F08070091FA2
:10198000086000BF0F48006800F000700028F9D020
:1019900040F205700E4908600A480830006820F0DF
:1019A00003000849083108600846006840F002005A
:1019B000086000BF03480830006800F00C000828E9
:1019C000F8D10CBD003802400070004019544007A7
:1019D000003C02407047000010B51548006840F414
:1019E0007000134908601348006840F00100114975
:1019F000086000200F49083108600E4800680E4951
:101A000008400C4908600D48091D0860081F00685F
:101A100020F48020091F0860002006490C3108606E
:101A2000FFF762FF4FF0006001498039086010BD88
:101A300088ED00E000380240FFFFF6FE1030002481
:101A400010B50121064800F01EF840B101210448FC
:101A500000F00AF803480068401C0249086010BD05
:101A60000010004010000020CA430282704721B1DC
:101A7000028842F00102028004E002884FF6FE7301
:101A80001A400280704730B502460020002300242F
:101A9000158A05EA0103958905EA010413B10CB121
:101AA000012000E0002030BD1AB183890B438381FF
:101AB00002E083898B438381704700000022028803
:101AC000184B98420ED0184B98420BD0B0F1804F73
:101AD00008D0164B984205D0154B984202D0154BB2
:101AE000984204D14FF68F731A404B881A43124B19
:101AF000984207D0114B984204D04FF6FF431A404A
:101B00000B891A4302804B68C3620B880385054B1F
:101B1000984202D0044B984201D18B7A038601236C
:101B2000838270470000014000040140000400402F
:101B300000080040000C004000100040001400406D
:101B400010B540F22551094800F02FF801280BD1BB
:101B5000064800F0E3F8C4B2054801680068401C7C
:101B6000034A10600348445410BD00000044004084
:101B7000180000202400002021B1828942F4005284
:101B8000828104E082894DF6FF731A40828170479A
:101B900002460020B1F5007F00D100BF13880B4042
:101BA0000BB1012000E00020704770B50246002410
:101BB00000230025002040F66A16B14200D100BF84
:101BC000C1F3421501F01F03012606FA03F3012DAC
:101BD00002D19689334006E0022D02D1168A3340A5
:101BE00001E0968A33400C12012606FA04F41688A6
:101BF000344013B10CB1012000E0002070BDF0B5FD
:101C00000346002400260025002040F66A17B9424A
:101C100000D100BF1846C1F3421401F01F0601278E
:101C200007FA06F5012C01D10C3004E0022C01D199
:101C3000103000E014301AB107682F43076002E04B
:101C40000768AF430760F0BD2DE9FF4705460E4624
:101C50000024A14600BFA046B08900B100BF2C8A75
:101C600024F44054F08804432C82AC8941F20C6087
:101C70008443B08831890843718908430443AC81A7
:101C8000AC8A24F44074B0890443AC826846FFF700
:101C900057FB2048854202D01F48854202D1DDF81B
:101CA0000C9001E0DDF80890A88900F4004040B1F4
:101CB00009EBC90000EB091031684900B0FBF1F7EE
:101CC00007E009EBC90000EB091031688900B0FB9F
:101CD000F1F76420B7FBF0F004012009642101FB57
:101CE0001078A88900F4004040B1322000EBC80011
:101CF000B0FBF1F000F00700044308E0322000EBF5
:101D000008106421B0FBF1F000F00F0004432C81B7
:101D1000BDE8FF870010014000140140014688889B
:101D2000C0F308007047C1F308028280704700BF0B
:101D3000FEE700000FB4054B10B503A9044A029852
:101D400000F0CAF810BC5DF814FB00004D26000836
:101D50002000002002E008C8121F08C1002AFAD1A2
:101D600070477047002001E001C1121F002AFBD11B
:101D7000704700002DE9FF5FDDE90220010DDDF86D
:101D800038B0024318D044F61050A1F2FF3141435D
:101D90000D140F98012820D0A5EB0B00401C5FEA22
:101DA000000A4FF00004474EDFF81C91A046504651
:101DB00016D5CAF1000728E00F98012443A2012894
:101DC00008D0002100980F9BC0E90021C0E9024320
:101DD000BDE8FF9F6FEA0B01F4E7CBF10000DEE7FF
:101DE000074612E0F80707D02246334640464946E8
:101DF000FEF7D3FB804689462246334610461946F5
:101E0000FEF7CBFB04460E467F10002FEAD1DDE93A
:101E10000201BAF1000F42464B4602DAFEF7BDFB63
:101E200001E0FEF786FA04460E460022284BFEF734
:101E30003FFC03D84FF0FF30014607E00022254B5E
:101E400020463146FEF7CEF9FEF719FC102409E0D2
:101E5000002C0ADB0A220023FEF7F0FA019B303245
:101E60001A55641E50EA0102F2D1641C019AC4F1B1
:101E7000110314440F9A012A03D0012208430DD103
:101E80000AE0084304D000204FF0110B0F9080E7C8
:101E9000A3EB0B056D1E0DE05B4504DD4FF000026A
:101EA00005F1010504E003DA4FF00002A5F1010598
:101EB000002AECD000980F99C0E90231C0E9004532
:101EC00086E70000000024400000F03F30000000E2
:101ED0000000F0430000E03F2DE9FF4F95B09B4626
:101EE0008946064600250FE2252877D1002427469B
:101EF000F84A0121059400E0044316F8013F203B15
:101F000001FA03F01042F7D130782A2811D06FF08F
:101F10002F033078A0F13002092A16D8059A44F030
:101F2000020402EB820203EB42021044761C05908D
:101F3000EFE759F8042B0592002A03DA504244F4E3
:101F40000054059044F00204761C30782E2816D1F7
:101F500016F8010F44F004042A280DD06FF02F0268
:101F60003078A0F13003092B09D807EB870302EB87
:101F70004303C718761CF3E759F8047B761C3078C6
:101F80006C280FD006DC4C2817D068280DD06A28A2
:101F900014D104E0742810D07A280FD10DE044F455
:101FA00000140AE044F4801401E044F44014727810
:101FB000824202D104F58014761C761C30786628A3
:101FC0000BD013DC582877D009DC002875D04528C1
:101FD000F6D04628F4D047281AD19DE118E06328AE
:101FE00035D0642879D0652812D195E1702873D056
:101FF00008DC6728F1D069286FD06E280DD06F28D3
:1020000006D1B5E073282CD0752875D0782874D007
:102010005A46179990476D1C75E1C4F30250022887
:1020200009D003280DD0D9F8001004280DD00D6078
:1020300009F1040967E1D9F80010EA17C1E9005273
:10204000F6E7D9F800100D80F2E70D70F0E719F807
:10205000041B8DF8001000208DF80100EA460120D5
:1020600003E059F804AB4FF0FF3061074FF0000177
:1020700002D40DE008F101018846B9420FDA80452B
:10208000F8DB1AF808100029F4D108E008F1010182
:1020900088468142FADB1AF808100029F6D1059823
:1020A0005B46A0EB080721463846179A00F094FAE1
:1020B000284400EB080507E04DE029E10DE01AF89F
:1020C000010B5A4617999047B8F10108F7D25B46C1
:1020D00021463846179A13E142E00A220092C4F3DF
:1020E00002524FF0000A022A08D059F804CB032A02
:1020F0004FEAEC710AD00DE029E02AE009F107016E
:1021000021F00702F2E802C1914609E00FFA8CFCC7
:102110004FEAEC71042A03D14FFA8CFC4FEAEC71C0
:10212000002907DA0A460021DCF1000C61EB02010C
:102130002D2202E0220504D52B228DF80420012255
:1021400003E0E20701D02022F7E7904659E00A2198
:1021500002E010220DE010214FF0000A00910BE088
:1021600010224FF0000A44F004040827009203E014
:1021700008224FF0000A0092C4F30252022A05D04E
:1021800059F804CB0021032A08D009E009F107011E
:1021900021F00702F2E802C1914605E01FFA8CFC2B
:1021A000042A01D10CF0FF0C4FF00008220728D5BB
:1021B000702806D0009B83F0100353EA0A0305D071
:1021C0000EE040228DF80420012208E05CEA0102C2
:1021D00006D030228DF804208DF8050002229046AA
:1021E000009B83F0080353EA0A030AD15CEA010268
:1021F00001D1620705D530228DF804204FF0010887
:102200007F1E582804D034A003900EA802900DE041
:1022100036A0F9E753466046009AFEF70FF9844668
:102220000398825C0298401E029002705CEA0100F2
:10223000F0D1029806A9081A00F1200A600702D519
:1022400024F4803400E00127574502DDA7EB0A00A3
:1022500000E0002000EB0A01009005984144401A7C
:102260000590E00306D45B462146179A059800F0D6
:10227000B3F90544002706E001A85A46C05D179946
:1022800090476D1C7F1C4745F6DBE0030CD55B4691
:102290002146179A059800F09FF9054404E0302084
:1022A0005A46179990476D1C0099481E00900029C6
:1022B000F5DC08E0029802995A460078491C029120
:1022C000179990476D1CBAF10001AAF1010AF1DCDF
:1022D00065E10000092801003031323334353637EA
:1022E0003839616263646566000000003031323362
:1022F0003435363738394142434445460000000002
:1023000000F058F90544761C307800287FF4ECADD5
:1023100019B02846BDE8F08F620700D4062709F1FE
:10232000070222F0070CFCE80223E14603F0004814
:102330005FEA080C02D00FF2702C0DE05FEA045C3B
:1023400002D50FF2682C07E05FEAC47C02D00FF2DE
:10235000602C01E0AFF2700C4FF0FF3823F0004327
:10236000CDF850C065280CD006DC452809D0462899
:102370001DD047283DD13DE0662818D067287ED182
:1023800038E00021112F01DB112000E0781CCDE99D
:10239000000106A90EA8FFF7EDFCDDE90F010E9A7A
:1023A00003910021009207F1010A04914DE04FF0E2
:1023B00000400097CDE9011006A90EA8FFF7DAFC4E
:1023C000DDE90F0203920E9B11990022DDF80CA0AB
:1023D0000093049211B9791C00EB010AB7EB0A00D3
:1023E00004D4C0F1FF3007F1010A0490AAEB070002
:1023F000019044E0012F00DA01270021112F01DDB7
:10240000112000E03846CDE9000106A90EA8FFF72B
:10241000B1FCDDE90F010E9A0391002104910092B5
:10242000BA4621070CD40399514500DA8A46BAF11D
:10243000010F05DD009AAAF10101515C302908D095
:10244000B84202DA10F1040F06DA0121CDE90110D9
:1024500015E0AAF10101E9E7002805DC049901442F
:102460000491AAEB000102E0411C514500DD8A46BF
:102470000499401A401C01904FF000400290200740
:1024800004D40198504501DBCDF8048000208DF87C
:102490004F0002980DF14F07B0F1004F25D02B20CF
:1024A0000E9002984FF0020800280CDA4042029089
:1024B0002D200E9007E00A210298FDF7A9FF303188
:1024C000029007F8011DB8F10001A8F10108F2DC43
:1024D00002980028EFD1791E0E980870307800F02D
:1024E000200040F0450007F8020D12A8C01B00F1C3
:1024F00007081498007800B1012000EB0A01019848
:1025000001EBE07105984144401A401E0590E0033C
:1025100006D45B462146179A059800F05DF80544FD
:102520001498007818B15A46179990476D1CE0032B
:1025300024D55B462146179A059800F04DF80544CE
:102540001CE00498002807DBDDE90301884203DD75
:102550000098405C179901E0179930205A4690473F
:10256000049805F10105401C04900198401E01905B
:1025700004D12E205A46179990476D1CBAF10001DC
:10258000AAF1010ADDDC05E017F8010B5A4617999C
:1025900090476D1CB8F10001A8F10108F4DC5B461E
:1025A0002146179A0598ABE62D0000002B0000008D
:1025B000200000002DE9F041044600251E46174684
:1025C000880404D405E039462020B0476D1C641E01
:1025D000F9D52846BDE8F0812DE9F04104460025F3
:1025E0001E469046C80301D5302700E02027880406
:1025F00004D505E041463846B0476D1C641EF9D548
:102600002846BDE8F08110B50346002404E04FF4ED
:102610007A7000F004F8641C9C42F8D310BDA82125
:1026200041434FF0E0225161052111610021916188
:1026300000BF4FF0E021096901F480310029F8D092
:1026400000214FF0E02211619161704770B504469E
:102650000D46E1B20548FFF766FB00BF8021034845
:10266000FFF796FA0028F9D0204670BD001001400F
:102670004FF47A70FFF7C7FF00F06CF8FEF74AFDE1
:10268000FEF7D2FEFEF706FA00F0DAF8FEF775FD67
:10269000FEF7CEF8FEF756FCFEF7C6FD18B90DA002
:1026A000FFF748FB02E011A0FFF744FBFEF768F9D3
:1026B00018B913A0FFF73EFB02E017A0FFF73AFBA3
:1026C0001AA0FFF737FB03E0FEF7F8FEFEF710FD58
:1026D000FAE700004D5055363035302054455354FC
:1026E000204552524F52210D0A0000004D505536E0
:1026F0003035302054455354204F4B210D0A0000F3
:1027000045535038323636205445535420455252A2
:102710004F52210D0A000000455350383236362002
:1027200054455354204F4B210D0A0000C7EBBCEC1D
:10273000B2E9CFD4CABEC6C1D2D4BCB0524742B5AA
:10274000C6CAC7B7F1D5FDD4DAB1E4C9ABA3A10DB0
:102750000A00000000B587B001210846FEF7C0FD61
:1027600001211020FEF7DCFD00208DF81A00012069
:102770008DF81B0002208DF819008DF8180000025A
:10278000059005A91748FEF7B7F902208DF8180043
:102790004002059005A91348FEF7AEF907220A2169
:1027A0001048FEF7F1F9072209210E48FEF7ECF96F
:1027B0004FF4E13001900020ADF80800ADF80A00B8
:1027C000ADF80C00ADF810000C20ADF80E0001A91A
:1027D0000548FFF739FA01210348FFF7CDF907B0A3
:1027E00000BD000000000240001001401CB50121A6
:1027F0001820FEF775FD01208DF804008DF8060005
:1028000003208DF805004FF47F60009069460A4868
:10281000FEF772F94FF47840009069460748FEF7DA
:102820006BF94FF47F610448FEF7DCF94FF478410F
:102830000248FEF7D7F91CBD000C02400010024010
:102840001FB501211020FEF75BFD5320ADF80400F9
:1028500040F2E730029001A90F48FFF72FF94FF43B
:102860008060FEF731FD36208DF8000000208DF8E5
:1028700001008DF8020001208DF803006846FEF784
:10288000E7FC012211460448FFF70EF90121024836
:10289000FFF7EDF81FBD000000100040BC28000845
:1028A0000000002024000000541D0008E02800085B
:1028B00024000020F4050000641D00080000000052
:1028C00001020304010203040607080900000000D6
:1028D00000000000000000000000000000000000F8
:040000050800018965
:00000001FF
